{
  "contractName": "BCCRoomBooking",
  "abi": [
    {
      "constant": false,
      "inputs": [
        {
          "name": "name",
          "type": "string"
        },
        {
          "name": "description",
          "type": "string"
        },
        {
          "name": "size",
          "type": "string"
        },
        {
          "name": "price",
          "type": "uint256"
        }
      ],
      "name": "offerRoom",
      "outputs": [],
      "payable": false,
      "stateMutability": "nonpayable",
      "type": "function"
    },
    {
      "constant": true,
      "inputs": [
        {
          "name": "",
          "type": "uint256"
        }
      ],
      "name": "rooms",
      "outputs": [
        {
          "name": "id",
          "type": "uint256"
        },
        {
          "name": "owner",
          "type": "address"
        },
        {
          "name": "bookingPerson",
          "type": "address"
        },
        {
          "name": "name",
          "type": "string"
        },
        {
          "name": "description",
          "type": "string"
        },
        {
          "name": "size",
          "type": "string"
        },
        {
          "name": "price",
          "type": "uint256"
        }
      ],
      "payable": false,
      "stateMutability": "view",
      "type": "function"
    },
    {
      "constant": false,
      "inputs": [],
      "name": "purchaseTokens",
      "outputs": [],
      "payable": true,
      "stateMutability": "payable",
      "type": "function"
    },
    {
      "constant": true,
      "inputs": [],
      "name": "getRoomsForBooking",
      "outputs": [
        {
          "name": "",
          "type": "uint256[]"
        }
      ],
      "payable": false,
      "stateMutability": "view",
      "type": "function"
    },
    {
      "constant": false,
      "inputs": [
        {
          "name": "_id",
          "type": "uint256"
        },
        {
          "name": "_price",
          "type": "uint256"
        }
      ],
      "name": "bookRoom",
      "outputs": [],
      "payable": true,
      "stateMutability": "payable",
      "type": "function"
    },
    {
      "constant": true,
      "inputs": [],
      "name": "owner",
      "outputs": [
        {
          "name": "",
          "type": "address"
        }
      ],
      "payable": false,
      "stateMutability": "view",
      "type": "function"
    },
    {
      "constant": true,
      "inputs": [],
      "name": "getNumberOfRooms",
      "outputs": [
        {
          "name": "",
          "type": "uint256"
        }
      ],
      "payable": false,
      "stateMutability": "view",
      "type": "function"
    },
    {
      "inputs": [
        {
          "name": "tokenAddress",
          "type": "address"
        }
      ],
      "payable": false,
      "stateMutability": "nonpayable",
      "type": "constructor"
    },
    {
      "anonymous": false,
      "inputs": [
        {
          "indexed": true,
          "name": "id",
          "type": "uint256"
        },
        {
          "indexed": true,
          "name": "owner",
          "type": "address"
        },
        {
          "indexed": true,
          "name": "bookingPerson",
          "type": "address"
        },
        {
          "indexed": false,
          "name": "name",
          "type": "string"
        },
        {
          "indexed": false,
          "name": "description",
          "type": "string"
        },
        {
          "indexed": false,
          "name": "size",
          "type": "string"
        },
        {
          "indexed": false,
          "name": "price",
          "type": "uint256"
        }
      ],
      "name": "OfferRoomEvent",
      "type": "event"
    },
    {
      "anonymous": false,
      "inputs": [
        {
          "indexed": false,
          "name": "id",
          "type": "uint256"
        },
        {
          "indexed": false,
          "name": "owner",
          "type": "address"
        },
        {
          "indexed": false,
          "name": "bookingPerson",
          "type": "address"
        },
        {
          "indexed": false,
          "name": "name",
          "type": "string"
        },
        {
          "indexed": false,
          "name": "description",
          "type": "string"
        },
        {
          "indexed": false,
          "name": "size",
          "type": "string"
        },
        {
          "indexed": false,
          "name": "price",
          "type": "uint256"
        }
      ],
      "name": "BookRoomEvent",
      "type": "event"
    }
  ],
  "bytecode": "0x6060604052341561000f57600080fd5b60405160208061125c83398101604052808051906020019091905050336000806101000a81548173ffffffffffffffffffffffffffffffffffffffff021916908373ffffffffffffffffffffffffffffffffffffffff16021790555080600360006101000a81548173ffffffffffffffffffffffffffffffffffffffff021916908373ffffffffffffffffffffffffffffffffffffffff160217905550506111a0806100bc6000396000f300606060405260043610610083576000357c0100000000000000000000000000000000000000000000000000000000900463ffffffff1680630e57c9c9146100885780631bae0ac8146101745780633290ce29146103b3578063787935b4146103bd5780638a3a1a18146104275780638da5cb5b14610448578063fde5faf91461049d575b600080fd5b341561009357600080fd5b610172600480803590602001908201803590602001908080601f0160208091040260200160405190810160405280939291908181526020018383808284378201915050505050509190803590602001908201803590602001908080601f0160208091040260200160405190810160405280939291908181526020018383808284378201915050505050509190803590602001908201803590602001908080601f016020809104026020016040519081016040528093929190818152602001838380828437820191505050505050919080359060200190919050506104c6565b005b341561017f57600080fd5b6101956004808035906020019091905050610847565b604051808881526020018773ffffffffffffffffffffffffffffffffffffffff1673ffffffffffffffffffffffffffffffffffffffff1681526020018673ffffffffffffffffffffffffffffffffffffffff1673ffffffffffffffffffffffffffffffffffffffff1681526020018060200180602001806020018581526020018481038452888181546001816001161561010002031660029004815260200191508054600181600116156101000203166002900480156102965780601f1061026b57610100808354040283529160200191610296565b820191906000526020600020905b81548152906001019060200180831161027957829003601f168201915b50508481038352878181546001816001161561010002031660029004815260200191508054600181600116156101000203166002900480156103195780601f106102ee57610100808354040283529160200191610319565b820191906000526020600020905b8154815290600101906020018083116102fc57829003601f168201915b505084810382528681815460018160011615610100020316600290048152602001915080546001816001161561010002031660029004801561039c5780601f106103715761010080835404028352916020019161039c565b820191906000526020600020905b81548152906001019060200180831161037f57829003601f168201915b50509a505050505050505050505060405180910390f35b6103bb6108c6565b005b34156103c857600080fd5b6103d06109f5565b6040518080602001828103825283818151815260200191508051906020019060200280838360005b838110156104135780820151818401526020810190506103f8565b505050509050019250505060405180910390f35b6104466004808035906020019091908035906020019091905050610b93565b005b341561045357600080fd5b61045b61108c565b604051808273ffffffffffffffffffffffffffffffffffffffff1673ffffffffffffffffffffffffffffffffffffffff16815260200191505060405180910390f35b34156104a857600080fd5b6104b06110b1565b6040518082815260200191505060405180910390f35b6000809054906101000a900473ffffffffffffffffffffffffffffffffffffffff1673ffffffffffffffffffffffffffffffffffffffff163373ffffffffffffffffffffffffffffffffffffffff1614151561052157600080fd5b60026000815480929190600101919050555060e06040519081016040528060025481526020013373ffffffffffffffffffffffffffffffffffffffff168152602001600073ffffffffffffffffffffffffffffffffffffffff168152602001858152602001848152602001838152602001828152506001600060025481526020019081526020016000206000820151816000015560208201518160010160006101000a81548173ffffffffffffffffffffffffffffffffffffffff021916908373ffffffffffffffffffffffffffffffffffffffff16021790555060408201518160020160006101000a81548173ffffffffffffffffffffffffffffffffffffffff021916908373ffffffffffffffffffffffffffffffffffffffff160217905550606082015181600301908051906020019061065f9291906110bb565b50608082015181600401908051906020019061067c9291906110bb565b5060a08201518160050190805190602001906106999291906110bb565b5060c0820151816006015590505060003373ffffffffffffffffffffffffffffffffffffffff166002547fe58e81d5bc0cabcfc40148b519b2fe9a682b699ddf99f02b6c86ebe5d7c7f1a38787878760405180806020018060200180602001858152602001848103845288818151815260200191508051906020019080838360005b8381101561073657808201518184015260208101905061071b565b50505050905090810190601f1680156107635780820380516001836020036101000a031916815260200191505b50848103835287818151815260200191508051906020019080838360005b8381101561079c578082015181840152602081019050610781565b50505050905090810190601f1680156107c95780820380516001836020036101000a031916815260200191505b50848103825286818151815260200191508051906020019080838360005b838110156108025780820151818401526020810190506107e7565b50505050905090810190601f16801561082f5780820380516001836020036101000a031916815260200191505b5097505050505050505060405180910390a450505050565b60016020528060005260406000206000915090508060000154908060010160009054906101000a900473ffffffffffffffffffffffffffffffffffffffff16908060020160009054906101000a900473ffffffffffffffffffffffffffffffffffffffff16908060030190806004019080600501908060060154905087565b600360009054906101000a900473ffffffffffffffffffffffffffffffffffffffff1673ffffffffffffffffffffffffffffffffffffffff1663dcefa538336000809054906101000a900473ffffffffffffffffffffffffffffffffffffffff16346040518463ffffffff167c0100000000000000000000000000000000000000000000000000000000028152600401808473ffffffffffffffffffffffffffffffffffffffff1673ffffffffffffffffffffffffffffffffffffffff1681526020018373ffffffffffffffffffffffffffffffffffffffff1673ffffffffffffffffffffffffffffffffffffffff1681526020018281526020019350505050600060405180830381600087803b15156109df57600080fd5b6102c65a03f115156109f057600080fd5b505050565b6109fd61113b565b610a0561113b565b600080610a1061113b565b6000806002541415610a43576000604051805910610a2b5750595b90808252806020026020018201604052509550610b8b565b600254604051805910610a535750595b9080825280602002602001820160405250945060009350600192505b60025483111515610b185760006001600085815260200190815260200160002060020160009054906101000a900473ffffffffffffffffffffffffffffffffffffffff1673ffffffffffffffffffffffffffffffffffffffff161415610b0b5760016000848152602001908152602001600020600001548585815181101515610af457fe5b906020019060200201818152505083806001019450505b8280600101935050610a6f565b83604051805910610b265750595b90808252806020026020018201604052509150600090505b83811015610b87578481815181101515610b5457fe5b906020019060200201518282815181101515610b6c57fe5b90602001906020020181815250508080600101915050610b3e565b8195505b505050505090565b600080600254111515610ba557600080fd5b600083118015610bb757506002548311155b1515610bc257600080fd5b60016000848152602001908152602001600020905060008160020160009054906101000a900473ffffffffffffffffffffffffffffffffffffffff1673ffffffffffffffffffffffffffffffffffffffff16141515610c2057600080fd5b3373ffffffffffffffffffffffffffffffffffffffff168160010160009054906101000a900473ffffffffffffffffffffffffffffffffffffffff1673ffffffffffffffffffffffffffffffffffffffff1614151515610c7f57600080fd5b818160060154141515610c9157600080fd5b338160020160006101000a81548173ffffffffffffffffffffffffffffffffffffffff021916908373ffffffffffffffffffffffffffffffffffffffff160217905550600360009054906101000a900473ffffffffffffffffffffffffffffffffffffffff1673ffffffffffffffffffffffffffffffffffffffff16631d32e8f98260010160009054906101000a900473ffffffffffffffffffffffffffffffffffffffff1684336000604051602001526040518463ffffffff167c0100000000000000000000000000000000000000000000000000000000028152600401808473ffffffffffffffffffffffffffffffffffffffff1673ffffffffffffffffffffffffffffffffffffffff1681526020018381526020018273ffffffffffffffffffffffffffffffffffffffff1673ffffffffffffffffffffffffffffffffffffffff1681526020019350505050602060405180830381600087803b1515610df957600080fd5b6102c65a03f11515610e0a57600080fd5b50505060405180519050507f7dfaf43f40d2bd0c264a17945e2f77bf60e05edbbd9eb37a595c59ef26c369f0838260010160009054906101000a900473ffffffffffffffffffffffffffffffffffffffff163384600301856004018660050188604051808881526020018773ffffffffffffffffffffffffffffffffffffffff1673ffffffffffffffffffffffffffffffffffffffff1681526020018673ffffffffffffffffffffffffffffffffffffffff1673ffffffffffffffffffffffffffffffffffffffff168152602001806020018060200180602001858152602001848103845288818154600181600116156101000203166002900481526020019150805460018160011615610100020316600290048015610f6b5780601f10610f4057610100808354040283529160200191610f6b565b820191906000526020600020905b815481529060010190602001808311610f4e57829003601f168201915b5050848103835287818154600181600116156101000203166002900481526020019150805460018160011615610100020316600290048015610fee5780601f10610fc357610100808354040283529160200191610fee565b820191906000526020600020905b815481529060010190602001808311610fd157829003601f168201915b50508481038252868181546001816001161561010002031660029004815260200191508054600181600116156101000203166002900480156110715780601f1061104657610100808354040283529160200191611071565b820191906000526020600020905b81548152906001019060200180831161105457829003601f168201915b50509a505050505050505050505060405180910390a1505050565b6000809054906101000a900473ffffffffffffffffffffffffffffffffffffffff1681565b6000600254905090565b828054600181600116156101000203166002900490600052602060002090601f016020900481019282601f106110fc57805160ff191683800117855561112a565b8280016001018555821561112a579182015b8281111561112957825182559160200191906001019061110e565b5b509050611137919061114f565b5090565b602060405190810160405280600081525090565b61117191905b8082111561116d576000816000905550600101611155565b5090565b905600a165627a7a72305820fdd65eb4295a6074ed5acd909bde9381305e4e424229d059405a0b9d80c124c20029",
  "source": "pragma solidity ^0.4.18;\n\nimport \"./Owned.sol\";\nimport \"./BCCToken.sol\";\n\ncontract BCCRoomBooking is Owned {\n    struct Room{\n        uint256 id;\n        address owner;\n        address bookingPerson;\n        string name;\n        string description;\n        string size;\n        uint256 price;\n    }\n\n\n    mapping(uint256 => Room) public rooms;\n    uint256 roomCounter;\n\n    address bccTokenAddress ;\n\n    event OfferRoomEvent(\n        uint256 indexed id,\n        address indexed owner,\n        address indexed bookingPerson,\n        string name,\n        string description,\n        string size,\n        uint256 price\n    );\n\n    event BookRoomEvent(\n        uint256 id,\n        address owner,\n        address bookingPerson,\n        string name,\n        string description,\n        string size,\n        uint256 price\n    );\n\n    function BCCRoomBooking(address tokenAddress) public  {\n        bccTokenAddress = tokenAddress;\n    }\n\n    function offerRoom(\n        string name,\n        string description,\n        string size,\n        uint256 price) onlyOwner public{\n\n        roomCounter++;\n        rooms[roomCounter] = Room(\n            roomCounter,\n            msg.sender,\n            0x0,\n            name,\n            description,\n            size,\n            price\n        );\n        OfferRoomEvent(roomCounter, msg.sender, 0x0, name, description, size, price);\n\n    }\n\n    function getNumberOfRooms() view public returns(uint256) {\n        return roomCounter;\n    }\n\n    function getRoomsForBooking() public constant returns (uint[]) {\n        if(roomCounter == 0) {\n            return new uint[](0);\n        }\n\n        // prepare intermediary array\n        uint[] memory roomIds = new uint[](roomCounter);\n\n        uint numberOfRoomsForBooking = 0;\n        \n        // iterate over rooms\n        for (uint i = 1; i <= roomCounter; i++) {\n            // keep only the ID of rooms not booked yet\n            if (rooms[i].bookingPerson == 0x0) {\n                roomIds[numberOfRoomsForBooking] = rooms[i].id;\n                numberOfRoomsForBooking++;\n            }\n        }\n\n        // copy the articleIds array into the smaller forBooking array\n        uint[] memory forBooking = new uint[](numberOfRoomsForBooking);\n        for (uint j = 0; j < numberOfRoomsForBooking; j++) {\n            forBooking[j] = roomIds[j];\n        }\n        return (forBooking);\n    }\n\n    function bookRoom(uint _id, uint _price) payable public {\n        // we check whether there is at least one room\n        require(roomCounter > 0);\n\n        // we check whether the room exists\n        require(_id > 0 && _id <= roomCounter);\n\n        // we retrieve the room\n        Room storage room = rooms[_id];\n\n        // we check whether the room has not already been sold\n        require(room.bookingPerson == 0x0);\n\n        // we don't allow the owner to buy his/her own room\n        require(room.owner != msg.sender);\n\n        // we check whether the value sent corresponds to the room price\n        require(room.price == _price);\n\n        // keep bookingPerson's information\n        room.bookingPerson = msg.sender;\n\n        // the bookingPerson can book the room\n        BCCToken(bccTokenAddress).transferMoney(room.owner, _price, msg.sender);\n\n        // trigger the event\n        BookRoomEvent(_id, room.owner, msg.sender, room.name, room.description, room.size, _price);\n    }\n\n    function purchaseTokens() payable public {\n        // the bookingPerson can book the room\n        // testtoken.buyTokens(acct0,{from:acct1,value:web3.toWei(1, \"ether\")})\n        BCCToken(bccTokenAddress).buyTokens(msg.sender,owner,msg.value);\n    }\n}\n",
  "sourcePath": "/Users/rkc/Projects/bcc-dapp-scaffolding/contracts/BCCRoomBooking.sol",
  "compiler": {
    "name": "solc",
    "version": "0.4.18+commit.9cf6e910.Emscripten.clang"
  },
  "schemaVersion": "1.0.1",
  "updatedAt": "2018-04-13T07:07:27.071Z"
}