{
  "contractName": "Owned",
  "abi": [
    {
      "constant": true,
      "inputs": [],
      "name": "owner",
      "outputs": [
        {
          "name": "",
          "type": "address"
        }
      ],
      "payable": false,
      "stateMutability": "view",
      "type": "function"
    },
    {
      "inputs": [],
      "payable": false,
      "stateMutability": "nonpayable",
      "type": "constructor"
    }
  ],
  "bytecode": "0x6060604052341561000f57600080fd5b336000806101000a81548173ffffffffffffffffffffffffffffffffffffffff021916908373ffffffffffffffffffffffffffffffffffffffff16021790555060e78061005d6000396000f300606060405260043610603f576000357c0100000000000000000000000000000000000000000000000000000000900463ffffffff1680638da5cb5b146044575b600080fd5b3415604e57600080fd5b60546096565b604051808273ffffffffffffffffffffffffffffffffffffffff1673ffffffffffffffffffffffffffffffffffffffff16815260200191505060405180910390f35b6000809054906101000a900473ffffffffffffffffffffffffffffffffffffffff16815600a165627a7a72305820a3a1bbe4ae692b5475cc75400e0ce69c5d706794e8e6d1288c7748ad9b9a946d0029",
  "source": "pragma solidity ^0.4.18;\n\ncontract Owned {\n  // State variable\n    address public owner ;\n\n  // Modifiers\n    modifier onlyOwner() {\n        require(msg.sender == owner);\n        _;\n    }\n\n    // constructor\n    function Owned() public {\n        owner = msg.sender;\n    }\n\n\n}\n",
  "sourcePath": "/Users/rkc/Projects/bcc-dapp-scaffolding/contracts/Owned.sol",
  "compiler": {
    "name": "solc",
    "version": "0.4.18+commit.9cf6e910.Emscripten.clang"
  },
  "schemaVersion": "1.0.1",
  "updatedAt": "2018-04-13T07:07:26.704Z"
}